{
  "contractName": "LocalAuthority",
  "abi": [
    {
      "anonymous": false,
      "inputs": [
        {
          "components": [
            {
              "internalType": "uint256",
              "name": "AMM",
              "type": "uint256"
            },
            {
              "internalType": "string",
              "name": "dateAMM",
              "type": "string"
            },
            {
              "internalType": "enum LocalAuthority.AMMStatus",
              "name": "status",
              "type": "uint8"
            },
            {
              "internalType": "string",
              "name": "lab",
              "type": "string"
            },
            {
              "components": [
                {
                  "internalType": "string",
                  "name": "dci",
                  "type": "string"
                },
                {
                  "internalType": "string",
                  "name": "specialite",
                  "type": "string"
                },
                {
                  "internalType": "string",
                  "name": "dosage",
                  "type": "string"
                },
                {
                  "internalType": "string",
                  "name": "forme",
                  "type": "string"
                },
                {
                  "internalType": "string",
                  "name": "presentation",
                  "type": "string"
                },
                {
                  "internalType": "string",
                  "name": "conditionnement",
                  "type": "string"
                },
                {
                  "internalType": "string",
                  "name": "classement_VEIC",
                  "type": "string"
                },
                {
                  "internalType": "string",
                  "name": "classe_therapeutic",
                  "type": "string"
                },
                {
                  "internalType": "string",
                  "name": "sous_classe",
                  "type": "string"
                },
                {
                  "internalType": "string",
                  "name": "laboratoire",
                  "type": "string"
                },
                {
                  "internalType": "string",
                  "name": "tableau",
                  "type": "string"
                },
                {
                  "internalType": "string",
                  "name": "duree_conservation",
                  "type": "string"
                },
                {
                  "internalType": "string",
                  "name": "indication",
                  "type": "string"
                },
                {
                  "internalType": "string",
                  "name": "generique_princeps",
                  "type": "string"
                },
                {
                  "internalType": "uint256",
                  "name": "amm",
                  "type": "uint256"
                },
                {
                  "internalType": "string",
                  "name": "status",
                  "type": "string"
                }
              ],
              "internalType": "struct Medicament",
              "name": "medicament",
              "type": "tuple"
            }
          ],
          "indexed": false,
          "internalType": "struct LocalAuthority.AMM",
          "name": "amm",
          "type": "tuple"
        }
      ],
      "name": "AMMAdded",
      "type": "event"
    },
    {
      "anonymous": false,
      "inputs": [
        {
          "components": [
            {
              "internalType": "uint256",
              "name": "AMM",
              "type": "uint256"
            },
            {
              "internalType": "string",
              "name": "dateAMM",
              "type": "string"
            },
            {
              "internalType": "enum LocalAuthority.AMMStatus",
              "name": "status",
              "type": "uint8"
            },
            {
              "internalType": "string",
              "name": "lab",
              "type": "string"
            },
            {
              "components": [
                {
                  "internalType": "string",
                  "name": "dci",
                  "type": "string"
                },
                {
                  "internalType": "string",
                  "name": "specialite",
                  "type": "string"
                },
                {
                  "internalType": "string",
                  "name": "dosage",
                  "type": "string"
                },
                {
                  "internalType": "string",
                  "name": "forme",
                  "type": "string"
                },
                {
                  "internalType": "string",
                  "name": "presentation",
                  "type": "string"
                },
                {
                  "internalType": "string",
                  "name": "conditionnement",
                  "type": "string"
                },
                {
                  "internalType": "string",
                  "name": "classement_VEIC",
                  "type": "string"
                },
                {
                  "internalType": "string",
                  "name": "classe_therapeutic",
                  "type": "string"
                },
                {
                  "internalType": "string",
                  "name": "sous_classe",
                  "type": "string"
                },
                {
                  "internalType": "string",
                  "name": "laboratoire",
                  "type": "string"
                },
                {
                  "internalType": "string",
                  "name": "tableau",
                  "type": "string"
                },
                {
                  "internalType": "string",
                  "name": "duree_conservation",
                  "type": "string"
                },
                {
                  "internalType": "string",
                  "name": "indication",
                  "type": "string"
                },
                {
                  "internalType": "string",
                  "name": "generique_princeps",
                  "type": "string"
                },
                {
                  "internalType": "uint256",
                  "name": "amm",
                  "type": "uint256"
                },
                {
                  "internalType": "string",
                  "name": "status",
                  "type": "string"
                }
              ],
              "internalType": "struct Medicament",
              "name": "medicament",
              "type": "tuple"
            }
          ],
          "indexed": false,
          "internalType": "struct LocalAuthority.AMM",
          "name": "amm",
          "type": "tuple"
        }
      ],
      "name": "AMMDeleted",
      "type": "event"
    },
    {
      "anonymous": false,
      "inputs": [
        {
          "components": [
            {
              "internalType": "uint256",
              "name": "AMM",
              "type": "uint256"
            },
            {
              "internalType": "string",
              "name": "dateAMM",
              "type": "string"
            },
            {
              "internalType": "enum LocalAuthority.AMMStatus",
              "name": "status",
              "type": "uint8"
            },
            {
              "internalType": "string",
              "name": "lab",
              "type": "string"
            },
            {
              "components": [
                {
                  "internalType": "string",
                  "name": "dci",
                  "type": "string"
                },
                {
                  "internalType": "string",
                  "name": "specialite",
                  "type": "string"
                },
                {
                  "internalType": "string",
                  "name": "dosage",
                  "type": "string"
                },
                {
                  "internalType": "string",
                  "name": "forme",
                  "type": "string"
                },
                {
                  "internalType": "string",
                  "name": "presentation",
                  "type": "string"
                },
                {
                  "internalType": "string",
                  "name": "conditionnement",
                  "type": "string"
                },
                {
                  "internalType": "string",
                  "name": "classement_VEIC",
                  "type": "string"
                },
                {
                  "internalType": "string",
                  "name": "classe_therapeutic",
                  "type": "string"
                },
                {
                  "internalType": "string",
                  "name": "sous_classe",
                  "type": "string"
                },
                {
                  "internalType": "string",
                  "name": "laboratoire",
                  "type": "string"
                },
                {
                  "internalType": "string",
                  "name": "tableau",
                  "type": "string"
                },
                {
                  "internalType": "string",
                  "name": "duree_conservation",
                  "type": "string"
                },
                {
                  "internalType": "string",
                  "name": "indication",
                  "type": "string"
                },
                {
                  "internalType": "string",
                  "name": "generique_princeps",
                  "type": "string"
                },
                {
                  "internalType": "uint256",
                  "name": "amm",
                  "type": "uint256"
                },
                {
                  "internalType": "string",
                  "name": "status",
                  "type": "string"
                }
              ],
              "internalType": "struct Medicament",
              "name": "medicament",
              "type": "tuple"
            }
          ],
          "indexed": false,
          "internalType": "struct LocalAuthority.AMM",
          "name": "amm",
          "type": "tuple"
        }
      ],
      "name": "AMMSuspended",
      "type": "event"
    },
    {
      "anonymous": false,
      "inputs": [
        {
          "indexed": false,
          "internalType": "string",
          "name": "drugName",
          "type": "string"
        },
        {
          "indexed": false,
          "internalType": "string",
          "name": "drugStoreAddress",
          "type": "string"
        },
        {
          "indexed": false,
          "internalType": "string",
          "name": "ipfsHash",
          "type": "string"
        }
      ],
      "name": "reclamationEvent",
      "type": "event"
    },
    {
      "anonymous": false,
      "inputs": [
        {
          "components": [
            {
              "internalType": "string",
              "name": "drugName",
              "type": "string"
            },
            {
              "internalType": "string",
              "name": "drugStoreAddress",
              "type": "string"
            },
            {
              "internalType": "string",
              "name": "imageHash",
              "type": "string"
            }
          ],
          "indexed": false,
          "internalType": "struct LocalAuthority.Reclamation",
          "name": "reclamation",
          "type": "tuple"
        }
      ],
      "name": "reclamationReceived",
      "type": "event"
    },
    {
      "inputs": [],
      "name": "owner",
      "outputs": [
        {
          "internalType": "address",
          "name": "",
          "type": "address"
        }
      ],
      "stateMutability": "view",
      "type": "function",
      "constant": true
    },
    {
      "inputs": [
        {
          "internalType": "address",
          "name": "newOwner",
          "type": "address"
        }
      ],
      "name": "transferOwnership",
      "outputs": [],
      "stateMutability": "nonpayable",
      "type": "function"
    },
    {
      "inputs": [
        {
          "internalType": "string",
          "name": "dosage",
          "type": "string"
        },
        {
          "internalType": "string",
          "name": "forme",
          "type": "string"
        },
        {
          "internalType": "string",
          "name": "presentation",
          "type": "string"
        }
      ],
      "name": "checkDrugVeracity",
      "outputs": [
        {
          "internalType": "bool",
          "name": "",
          "type": "bool"
        }
      ],
      "stateMutability": "view",
      "type": "function",
      "constant": true
    },
    {
      "inputs": [
        {
          "components": [
            {
              "internalType": "string",
              "name": "dci",
              "type": "string"
            },
            {
              "internalType": "string",
              "name": "specialite",
              "type": "string"
            },
            {
              "internalType": "string",
              "name": "dosage",
              "type": "string"
            },
            {
              "internalType": "string",
              "name": "forme",
              "type": "string"
            },
            {
              "internalType": "string",
              "name": "presentation",
              "type": "string"
            },
            {
              "internalType": "string",
              "name": "conditionnement",
              "type": "string"
            },
            {
              "internalType": "string",
              "name": "classement_VEIC",
              "type": "string"
            },
            {
              "internalType": "string",
              "name": "classe_therapeutic",
              "type": "string"
            },
            {
              "internalType": "string",
              "name": "sous_classe",
              "type": "string"
            },
            {
              "internalType": "string",
              "name": "laboratoire",
              "type": "string"
            },
            {
              "internalType": "string",
              "name": "tableau",
              "type": "string"
            },
            {
              "internalType": "string",
              "name": "duree_conservation",
              "type": "string"
            },
            {
              "internalType": "string",
              "name": "indication",
              "type": "string"
            },
            {
              "internalType": "string",
              "name": "generique_princeps",
              "type": "string"
            },
            {
              "internalType": "uint256",
              "name": "amm",
              "type": "uint256"
            },
            {
              "internalType": "string",
              "name": "status",
              "type": "string"
            }
          ],
          "internalType": "struct Medicament",
          "name": "medicament",
          "type": "tuple"
        },
        {
          "internalType": "uint256",
          "name": "idAMM",
          "type": "uint256"
        },
        {
          "internalType": "string",
          "name": "date",
          "type": "string"
        }
      ],
      "name": "addAMM",
      "outputs": [],
      "stateMutability": "nonpayable",
      "type": "function"
    },
    {
      "inputs": [
        {
          "components": [
            {
              "internalType": "string",
              "name": "dci",
              "type": "string"
            },
            {
              "internalType": "string",
              "name": "specialite",
              "type": "string"
            },
            {
              "internalType": "string",
              "name": "dosage",
              "type": "string"
            },
            {
              "internalType": "string",
              "name": "forme",
              "type": "string"
            },
            {
              "internalType": "string",
              "name": "presentation",
              "type": "string"
            },
            {
              "internalType": "string",
              "name": "conditionnement",
              "type": "string"
            },
            {
              "internalType": "string",
              "name": "classement_VEIC",
              "type": "string"
            },
            {
              "internalType": "string",
              "name": "classe_therapeutic",
              "type": "string"
            },
            {
              "internalType": "string",
              "name": "sous_classe",
              "type": "string"
            },
            {
              "internalType": "string",
              "name": "laboratoire",
              "type": "string"
            },
            {
              "internalType": "string",
              "name": "tableau",
              "type": "string"
            },
            {
              "internalType": "string",
              "name": "duree_conservation",
              "type": "string"
            },
            {
              "internalType": "string",
              "name": "indication",
              "type": "string"
            },
            {
              "internalType": "string",
              "name": "generique_princeps",
              "type": "string"
            },
            {
              "internalType": "uint256",
              "name": "amm",
              "type": "uint256"
            },
            {
              "internalType": "string",
              "name": "status",
              "type": "string"
            }
          ],
          "internalType": "struct Medicament",
          "name": "medicament",
          "type": "tuple"
        },
        {
          "internalType": "uint256",
          "name": "idAMM",
          "type": "uint256"
        },
        {
          "internalType": "string",
          "name": "date",
          "type": "string"
        },
        {
          "internalType": "enum LocalAuthority.AMMStatus",
          "name": "status",
          "type": "uint8"
        }
      ],
      "name": "updateAMM",
      "outputs": [],
      "stateMutability": "nonpayable",
      "type": "function"
    },
    {
      "inputs": [
        {
          "internalType": "string",
          "name": "dosage",
          "type": "string"
        },
        {
          "internalType": "string",
          "name": "forme",
          "type": "string"
        },
        {
          "internalType": "string",
          "name": "presentation",
          "type": "string"
        }
      ],
      "name": "displayDrugDetails",
      "outputs": [
        {
          "components": [
            {
              "internalType": "string",
              "name": "dci",
              "type": "string"
            },
            {
              "internalType": "string",
              "name": "specialite",
              "type": "string"
            },
            {
              "internalType": "string",
              "name": "dosage",
              "type": "string"
            },
            {
              "internalType": "string",
              "name": "forme",
              "type": "string"
            },
            {
              "internalType": "string",
              "name": "presentation",
              "type": "string"
            },
            {
              "internalType": "string",
              "name": "conditionnement",
              "type": "string"
            },
            {
              "internalType": "string",
              "name": "classement_VEIC",
              "type": "string"
            },
            {
              "internalType": "string",
              "name": "classe_therapeutic",
              "type": "string"
            },
            {
              "internalType": "string",
              "name": "sous_classe",
              "type": "string"
            },
            {
              "internalType": "string",
              "name": "laboratoire",
              "type": "string"
            },
            {
              "internalType": "string",
              "name": "tableau",
              "type": "string"
            },
            {
              "internalType": "string",
              "name": "duree_conservation",
              "type": "string"
            },
            {
              "internalType": "string",
              "name": "indication",
              "type": "string"
            },
            {
              "internalType": "string",
              "name": "generique_princeps",
              "type": "string"
            },
            {
              "internalType": "uint256",
              "name": "amm",
              "type": "uint256"
            },
            {
              "internalType": "string",
              "name": "status",
              "type": "string"
            }
          ],
          "internalType": "struct Medicament",
          "name": "",
          "type": "tuple"
        }
      ],
      "stateMutability": "view",
      "type": "function",
      "constant": true
    },
    {
      "inputs": [
        {
          "internalType": "string",
          "name": "dn",
          "type": "string"
        },
        {
          "internalType": "string",
          "name": "dsa",
          "type": "string"
        },
        {
          "internalType": "string",
          "name": "ih",
          "type": "string"
        }
      ],
      "name": "sendReclamation",
      "outputs": [],
      "stateMutability": "nonpayable",
      "type": "function"
    }
  ],
  "bytecode": "0x6080604052336000806101000a81548173ffffffffffffffffffffffffffffffffffffffff021916908373ffffffffffffffffffffffffffffffffffffffff160217905550612b97806100536000396000f3fe608060405234801561001057600080fd5b506004361061007d5760003560e01c80637a4524501161005b5780637a452450146100d65780638da5cb5b14610106578063c043443d14610124578063f2fde38b146101545761007d565b80633e9d9d82146100825780634ebdd2601461009e578063635f9b40146100ba575b600080fd5b61009c6004803603610097919081019061217c565b610170565b005b6100b860048036036100b391908101906120fd565b61082d565b005b6100d460048036036100cf9190810190612066565b610e5d565b005b6100f060048036036100eb9190810190612066565b610ebf565b6040516100fd91906128d8565b60405180910390f35b61010e6118ae565b60405161011b9190612880565b60405180910390f35b61013e60048036036101399190810190612066565b6118d3565b60405161014b919061289b565b60405180910390f35b61016e6004803603610169919081019061203d565b611960565b005b6000809054906101000a900473ffffffffffffffffffffffffffffffffffffffff1673ffffffffffffffffffffffffffffffffffffffff163373ffffffffffffffffffffffffffffffffffffffff161415610827576000600260008581526020019081526020016000209050838160000181905550828160010190805190602001906101fd929190611a2e565b50818160020160006101000a81548160ff0219169083600281111561021e57fe5b021790555084816004016000820151816000019080519060200190610244929190611aae565b506020820151816001019080519060200190610261929190611aae565b50604082015181600201908051906020019061027e929190611aae565b50606082015181600301908051906020019061029b929190611aae565b5060808201518160040190805190602001906102b8929190611aae565b5060a08201518160050190805190602001906102d5929190611aae565b5060c08201518160060190805190602001906102f2929190611aae565b5060e082015181600701908051906020019061030f929190611aae565b5061010082015181600801908051906020019061032d929190611aae565b5061012082015181600901908051906020019061034b929190611aae565b5061014082015181600a019080519060200190610369929190611aae565b5061016082015181600b019080519060200190610387929190611aae565b5061018082015181600c0190805190602001906103a5929190611aae565b506101a082015181600d0190805190602001906103c3929190611aae565b506101c082015181600e01556101e082015181600f0190805190602001906103ec929190611aae565b509050506002600085815260200190815260200160002060038660400151876060015188608001516040516020016104269392919061284f565b6040516020818303038152906040526040516104429190612807565b90815260200160405180910390206000820154816000015560018201816001019080546001816001161561010002031660029004610481929190611b2e565b506002820160009054906101000a900460ff168160020160006101000a81548160ff021916908360028111156104b357fe5b0217905550600382018160030190805460018160011615610100020316600290046104df929190611b2e565b5060048201816004016000820181600001908054600181600116156101000203166002900461050f929190611b2e565b5060018201816001019080546001816001161561010002031660029004610537929190611b2e565b506002820181600201908054600181600116156101000203166002900461055f929190611b2e565b5060038201816003019080546001816001161561010002031660029004610587929190611b2e565b50600482018160040190805460018160011615610100020316600290046105af929190611b2e565b50600582018160050190805460018160011615610100020316600290046105d7929190611b2e565b50600682018160060190805460018160011615610100020316600290046105ff929190611b2e565b5060078201816007019080546001816001161561010002031660029004610627929190611b2e565b506008820181600801908054600181600116156101000203166002900461064f929190611b2e565b5060098201816009019080546001816001161561010002031660029004610677929190611b2e565b50600a820181600a01908054600181600116156101000203166002900461069f929190611b2e565b50600b820181600b0190805460018160011615610100020316600290046106c7929190611b2e565b50600c820181600c0190805460018160011615610100020316600290046106ef929190611b2e565b50600d820181600d019080546001816001161561010002031660029004610717929190611b2e565b50600e82015481600e0155600f820181600f019080546001816001161561010002031660029004610749929190611b2e565b50505090505060028081111561075b57fe5b82600281111561076757fe5b14156107bb577f8e0c494aa0c44cf9820547d65c039aeb3eeb92571a95e60793858b44af27ca0b600260008681526020019081526020016000206040516107ae91906128b6565b60405180910390a1610825565b600160028111156107c857fe5b8260028111156107d457fe5b1415610824577f70533861028b7d307727dc3f52993609e0d2cc5112cca26e65f18e9aa95c4da56002600086815260200190815260200160002060405161081b91906128b6565b60405180910390a15b5b505b50505050565b6000809054906101000a900473ffffffffffffffffffffffffffffffffffffffff1673ffffffffffffffffffffffffffffffffffffffff163373ffffffffffffffffffffffffffffffffffffffff161415610e58576000600260008481526020019081526020016000209050828160000181905550818160010190805190602001906108ba929190611a2e565b5060008160020160006101000a81548160ff021916908360028111156108dc57fe5b021790555083816004016000820151816000019080519060200190610902929190611aae565b50602082015181600101908051906020019061091f929190611aae565b50604082015181600201908051906020019061093c929190611aae565b506060820151816003019080519060200190610959929190611aae565b506080820151816004019080519060200190610976929190611aae565b5060a0820151816005019080519060200190610993929190611aae565b5060c08201518160060190805190602001906109b0929190611aae565b5060e08201518160070190805190602001906109cd929190611aae565b506101008201518160080190805190602001906109eb929190611aae565b50610120820151816009019080519060200190610a09929190611aae565b5061014082015181600a019080519060200190610a27929190611aae565b5061016082015181600b019080519060200190610a45929190611aae565b5061018082015181600c019080519060200190610a63929190611aae565b506101a082015181600d019080519060200190610a81929190611aae565b506101c082015181600e01556101e082015181600f019080519060200190610aaa929190611aae565b50905050600260008481526020019081526020016000206003856040015186606001518760800151604051602001610ae49392919061284f565b604051602081830303815290604052604051610b009190612807565b90815260200160405180910390206000820154816000015560018201816001019080546001816001161561010002031660029004610b3f929190611b2e565b506002820160009054906101000a900460ff168160020160006101000a81548160ff02191690836002811115610b7157fe5b021790555060038201816003019080546001816001161561010002031660029004610b9d929190611b2e565b50600482018160040160008201816000019080546001816001161561010002031660029004610bcd929190611b2e565b5060018201816001019080546001816001161561010002031660029004610bf5929190611b2e565b5060028201816002019080546001816001161561010002031660029004610c1d929190611b2e565b5060038201816003019080546001816001161561010002031660029004610c45929190611b2e565b5060048201816004019080546001816001161561010002031660029004610c6d929190611b2e565b5060058201816005019080546001816001161561010002031660029004610c95929190611b2e565b5060068201816006019080546001816001161561010002031660029004610cbd929190611b2e565b5060078201816007019080546001816001161561010002031660029004610ce5929190611b2e565b5060088201816008019080546001816001161561010002031660029004610d0d929190611b2e565b5060098201816009019080546001816001161561010002031660029004610d35929190611b2e565b50600a820181600a019080546001816001161561010002031660029004610d5d929190611b2e565b50600b820181600b019080546001816001161561010002031660029004610d85929190611b2e565b50600c820181600c019080546001816001161561010002031660029004610dad929190611b2e565b50600d820181600d019080546001816001161561010002031660029004610dd5929190611b2e565b50600e82015481600e0155600f820181600f019080546001816001161561010002031660029004610e07929190611b2e565b5050509050507f655d452ca4f50703bf91dce637b34dd3036bebb3713c1ca9923405cebeb257de60026000858152602001908152602001600020604051610e4e91906128b6565b60405180910390a1505b505050565b610e65611bb5565b60405180606001604052808581526020018481526020018381525090507f0f41365b821710fc1f5623b0c8643ca8691cb2a9c87bd358ccfe9d87e196cef281604051610eb191906128fa565b60405180910390a150505050565b610ec7611bd6565b60006003858585604051602001610ee09392919061281e565b604051602081830303815290604052604051610efc9190612807565b908152602001604051809103902090508060040160405180610200016040529081600082018054600181600116156101000203166002900480601f016020809104026020016040519081016040528092919081815260200182805460018160011615610100020316600290048015610fb55780601f10610f8a57610100808354040283529160200191610fb5565b820191906000526020600020905b815481529060010190602001808311610f9857829003601f168201915b50505050508152602001600182018054600181600116156101000203166002900480601f0160208091040260200160405190810160405280929190818152602001828054600181600116156101000203166002900480156110575780601f1061102c57610100808354040283529160200191611057565b820191906000526020600020905b81548152906001019060200180831161103a57829003601f168201915b50505050508152602001600282018054600181600116156101000203166002900480601f0160208091040260200160405190810160405280929190818152602001828054600181600116156101000203166002900480156110f95780601f106110ce576101008083540402835291602001916110f9565b820191906000526020600020905b8154815290600101906020018083116110dc57829003601f168201915b50505050508152602001600382018054600181600116156101000203166002900480601f01602080910402602001604051908101604052809291908181526020018280546001816001161561010002031660029004801561119b5780601f106111705761010080835404028352916020019161119b565b820191906000526020600020905b81548152906001019060200180831161117e57829003601f168201915b50505050508152602001600482018054600181600116156101000203166002900480601f01602080910402602001604051908101604052809291908181526020018280546001816001161561010002031660029004801561123d5780601f106112125761010080835404028352916020019161123d565b820191906000526020600020905b81548152906001019060200180831161122057829003601f168201915b50505050508152602001600582018054600181600116156101000203166002900480601f0160208091040260200160405190810160405280929190818152602001828054600181600116156101000203166002900480156112df5780601f106112b4576101008083540402835291602001916112df565b820191906000526020600020905b8154815290600101906020018083116112c257829003601f168201915b50505050508152602001600682018054600181600116156101000203166002900480601f0160208091040260200160405190810160405280929190818152602001828054600181600116156101000203166002900480156113815780601f1061135657610100808354040283529160200191611381565b820191906000526020600020905b81548152906001019060200180831161136457829003601f168201915b50505050508152602001600782018054600181600116156101000203166002900480601f0160208091040260200160405190810160405280929190818152602001828054600181600116156101000203166002900480156114235780601f106113f857610100808354040283529160200191611423565b820191906000526020600020905b81548152906001019060200180831161140657829003601f168201915b50505050508152602001600882018054600181600116156101000203166002900480601f0160208091040260200160405190810160405280929190818152602001828054600181600116156101000203166002900480156114c55780601f1061149a576101008083540402835291602001916114c5565b820191906000526020600020905b8154815290600101906020018083116114a857829003601f168201915b50505050508152602001600982018054600181600116156101000203166002900480601f0160208091040260200160405190810160405280929190818152602001828054600181600116156101000203166002900480156115675780601f1061153c57610100808354040283529160200191611567565b820191906000526020600020905b81548152906001019060200180831161154a57829003601f168201915b50505050508152602001600a82018054600181600116156101000203166002900480601f0160208091040260200160405190810160405280929190818152602001828054600181600116156101000203166002900480156116095780601f106115de57610100808354040283529160200191611609565b820191906000526020600020905b8154815290600101906020018083116115ec57829003601f168201915b50505050508152602001600b82018054600181600116156101000203166002900480601f0160208091040260200160405190810160405280929190818152602001828054600181600116156101000203166002900480156116ab5780601f10611680576101008083540402835291602001916116ab565b820191906000526020600020905b81548152906001019060200180831161168e57829003601f168201915b50505050508152602001600c82018054600181600116156101000203166002900480601f01602080910402602001604051908101604052809291908181526020018280546001816001161561010002031660029004801561174d5780601f106117225761010080835404028352916020019161174d565b820191906000526020600020905b81548152906001019060200180831161173057829003601f168201915b50505050508152602001600d82018054600181600116156101000203166002900480601f0160208091040260200160405190810160405280929190818152602001828054600181600116156101000203166002900480156117ef5780601f106117c4576101008083540402835291602001916117ef565b820191906000526020600020905b8154815290600101906020018083116117d257829003601f168201915b50505050508152602001600e8201548152602001600f82018054600181600116156101000203166002900480601f01602080910402602001604051908101604052809291908181526020018280546001816001161561010002031660029004801561189b5780601f106118705761010080835404028352916020019161189b565b820191906000526020600020905b81548152906001019060200180831161187e57829003601f168201915b5050505050815250509150509392505050565b6000809054906101000a900473ffffffffffffffffffffffffffffffffffffffff1681565b60008060038585856040516020016118ed9392919061281e565b6040516020818303038152906040526040516119099190612807565b908152602001604051809103902090506000600281111561192657fe5b8160020160009054906101000a900460ff16600281111561194357fe5b1415611953576001915050611959565b60009150505b9392505050565b6000809054906101000a900473ffffffffffffffffffffffffffffffffffffffff1673ffffffffffffffffffffffffffffffffffffffff163373ffffffffffffffffffffffffffffffffffffffff161415611a2b57600073ffffffffffffffffffffffffffffffffffffffff168173ffffffffffffffffffffffffffffffffffffffff1614611a2a57806000806101000a81548173ffffffffffffffffffffffffffffffffffffffff021916908373ffffffffffffffffffffffffffffffffffffffff1602179055505b5b50565b828054600181600116156101000203166002900490600052602060002090601f016020900481019282601f10611a6f57805160ff1916838001178555611a9d565b82800160010185558215611a9d579182015b82811115611a9c578251825591602001919060010190611a81565b5b509050611aaa9190611c53565b5090565b828054600181600116156101000203166002900490600052602060002090601f016020900481019282601f10611aef57805160ff1916838001178555611b1d565b82800160010185558215611b1d579182015b82811115611b1c578251825591602001919060010190611b01565b5b509050611b2a9190611c53565b5090565b828054600181600116156101000203166002900490600052602060002090601f016020900481019282601f10611b675780548555611ba4565b82800160010185558215611ba457600052602060002091601f016020900482015b82811115611ba3578254825591600101919060010190611b88565b5b509050611bb19190611c53565b5090565b60405180606001604052806060815260200160608152602001606081525090565b604051806102000160405280606081526020016060815260200160608152602001606081526020016060815260200160608152602001606081526020016060815260200160608152602001606081526020016060815260200160608152602001606081526020016060815260200160008152602001606081525090565b611c7591905b80821115611c71576000816000905550600101611c59565b5090565b90565b600081359050611c8781612b23565b92915050565b600081359050611c9c81612b3a565b92915050565b600082601f830112611cb357600080fd5b8135611cc6611cc182612949565b61291c565b91508082526020830160208301858383011115611ce257600080fd5b611ced838284612a82565b50505092915050565b600082601f830112611d0757600080fd5b8135611d1a611d1582612975565b61291c565b91508082526020830160208301858383011115611d3657600080fd5b611d41838284612a82565b50505092915050565b60006102008284031215611d5d57600080fd5b611d6861020061291c565b9050600082013567ffffffffffffffff811115611d8457600080fd5b611d9084828501611ca2565b600083015250602082013567ffffffffffffffff811115611db057600080fd5b611dbc84828501611ca2565b602083015250604082013567ffffffffffffffff811115611ddc57600080fd5b611de884828501611ca2565b604083015250606082013567ffffffffffffffff811115611e0857600080fd5b611e1484828501611ca2565b606083015250608082013567ffffffffffffffff811115611e3457600080fd5b611e4084828501611ca2565b60808301525060a082013567ffffffffffffffff811115611e6057600080fd5b611e6c84828501611ca2565b60a08301525060c082013567ffffffffffffffff811115611e8c57600080fd5b611e9884828501611ca2565b60c08301525060e082013567ffffffffffffffff811115611eb857600080fd5b611ec484828501611ca2565b60e08301525061010082013567ffffffffffffffff811115611ee557600080fd5b611ef184828501611ca2565b6101008301525061012082013567ffffffffffffffff811115611f1357600080fd5b611f1f84828501611ca2565b6101208301525061014082013567ffffffffffffffff811115611f4157600080fd5b611f4d84828501611ca2565b6101408301525061016082013567ffffffffffffffff811115611f6f57600080fd5b611f7b84828501611ca2565b6101608301525061018082013567ffffffffffffffff811115611f9d57600080fd5b611fa984828501611ca2565b610180830152506101a082013567ffffffffffffffff811115611fcb57600080fd5b611fd784828501611ca2565b6101a0830152506101c0611fed84828501612028565b6101c0830152506101e082013567ffffffffffffffff81111561200f57600080fd5b61201b84828501611ca2565b6101e08301525092915050565b60008135905061203781612b4a565b92915050565b60006020828403121561204f57600080fd5b600061205d84828501611c78565b91505092915050565b60008060006060848603121561207b57600080fd5b600084013567ffffffffffffffff81111561209557600080fd5b6120a186828701611cf6565b935050602084013567ffffffffffffffff8111156120be57600080fd5b6120ca86828701611cf6565b925050604084013567ffffffffffffffff8111156120e757600080fd5b6120f386828701611cf6565b9150509250925092565b60008060006060848603121561211257600080fd5b600084013567ffffffffffffffff81111561212c57600080fd5b61213886828701611d4a565b935050602061214986828701612028565b925050604084013567ffffffffffffffff81111561216657600080fd5b61217286828701611cf6565b9150509250925092565b6000806000806080858703121561219257600080fd5b600085013567ffffffffffffffff8111156121ac57600080fd5b6121b887828801611d4a565b94505060206121c987828801612028565b935050604085013567ffffffffffffffff8111156121e657600080fd5b6121f287828801611cf6565b925050606061220387828801611c8d565b91505092959194509250565b61221881612a15565b82525050565b61222781612a27565b82525050565b6000612238826129b6565b61224281856129d7565b9350612252818560208601612a91565b80840191505092915050565b61226781612a70565b82525050565b6000612278826129cc565b61228281856129f3565b9350612292818560208601612a91565b80840191505092915050565b60006122a9826129c1565b6122b381856129e2565b93506122c3818560208601612a91565b6122cc81612af8565b840191505092915050565b60006122e2826129c1565b6122ec81856129f3565b93506122fc818560208601612a91565b80840191505092915050565b600081546001811660008114612325576001811461234b5761238f565b607f600283041661233681876129e2565b955060ff19831686526020860193505061238f565b6002820461235981876129e2565b9550612364856129a1565b60005b8281101561238657815481890152600182019150602081019050612367565b80880195505050505b505092915050565b600060a0830160008084015490506123ae81612ade565b6123bb60008701826127f8565b506001840185830360208701526123d28382612308565b925050600284015490506123e581612ac4565b6123f2604087018261225e565b506003840185830360608701526124098382612308565b92505060048401858303608087015261242283826125ea565b925050819250505092915050565b600061020083016000830151848203600086015261244e828261229e565b91505060208301518482036020860152612468828261229e565b91505060408301518482036040860152612482828261229e565b9150506060830151848203606086015261249c828261229e565b915050608083015184820360808601526124b6828261229e565b91505060a083015184820360a08601526124d0828261229e565b91505060c083015184820360c08601526124ea828261229e565b91505060e083015184820360e0860152612504828261229e565b915050610100830151848203610100860152612520828261229e565b91505061012083015184820361012086015261253c828261229e565b915050610140830151848203610140860152612558828261229e565b915050610160830151848203610160860152612574828261229e565b915050610180830151848203610180860152612590828261229e565b9150506101a08301518482036101a08601526125ac828261229e565b9150506101c08301516125c36101c08601826127f8565b506101e08301518482036101e08601526125dd828261229e565b9150508091505092915050565b60006102008301600080840185830360008701526126088382612308565b9250506001840185830360208701526126218382612308565b92505060028401858303604087015261263a8382612308565b9250506003840185830360608701526126538382612308565b92505060048401858303608087015261266c8382612308565b9250506005840185830360a08701526126858382612308565b9250506006840185830360c087015261269e8382612308565b9250506007840185830360e08701526126b78382612308565b925050600884018583036101008701526126d18382612308565b925050600984018583036101208701526126eb8382612308565b925050600a84018583036101408701526127058382612308565b925050600b840185830361016087015261271f8382612308565b925050600c84018583036101808701526127398382612308565b925050600d84018583036101a08701526127538382612308565b925050600e840154905061276681612ade565b6127746101c08701826127f8565b50600f84018583036101e087015261278c8382612308565b925050819250505092915050565b600060608301600083015184820360008601526127b7828261229e565b915050602083015184820360208601526127d1828261229e565b915050604083015184820360408601526127eb828261229e565b9150508091505092915050565b61280181612a66565b82525050565b6000612813828461222d565b915081905092915050565b600061282a828661226d565b9150612836828561226d565b9150612842828461226d565b9150819050949350505050565b600061285b82866122d7565b915061286782856122d7565b915061287382846122d7565b9150819050949350505050565b6000602082019050612895600083018461220f565b92915050565b60006020820190506128b0600083018461221e565b92915050565b600060208201905081810360008301526128d08184612397565b905092915050565b600060208201905081810360008301526128f28184612430565b905092915050565b60006020820190508181036000830152612914818461279a565b905092915050565b6000604051905081810181811067ffffffffffffffff8211171561293f57600080fd5b8060405250919050565b600067ffffffffffffffff82111561296057600080fd5b601f19601f8301169050602081019050919050565b600067ffffffffffffffff82111561298c57600080fd5b601f19601f8301169050602081019050919050565b60008190508160005260206000209050919050565b600081519050919050565b600081519050919050565b600081519050919050565b600081905092915050565b600082825260208201905092915050565b600081905092915050565b600060ff82169050919050565b6000819050919050565b6000612a2082612a46565b9050919050565b60008115159050919050565b6000819050612a4182612b16565b919050565b600073ffffffffffffffffffffffffffffffffffffffff82169050919050565b6000819050919050565b6000612a7b82612a33565b9050919050565b82818337600083830152505050565b60005b83811015612aaf578082015181840152602081019050612a94565b83811115612abe576000848401525b50505050565b6000612ad7612ad283612b09565b6129fe565b9050919050565b6000612af1612aec83612b09565b612a0b565b9050919050565b6000601f19601f8301169050919050565b60008160001c9050919050565b60038110612b2057fe5b50565b612b2c81612a15565b8114612b3757600080fd5b50565b60038110612b4757600080fd5b50565b612b5381612a66565b8114612b5e57600080fd5b5056fea2646970667358221220c2b5b30a8458b918ef82e212e0aba5f7986c52dd45d97eed89d0d3021b3e6fae64736f6c63430006000033",
  "source": "// SPDX-License-Identifier: GPL-3.0\r\npragma solidity >=0.4.22 <0.9.0;\r\npragma experimental ABIEncoderV2;\r\n\r\nimport \"./Ownable.sol\";\r\nimport \"./OMS.sol\";\r\n\r\ncontract LocalAuthority is Ownable {\r\n    string countryCode;\r\n\r\n    enum AMMStatus { Active, Suspended, Deleted }\r\n    struct AMM{\r\n        uint AMM;\r\n        string dateAMM;\r\n        AMMStatus status;\r\n        string lab;\r\n        Medicament medicament;\r\n    }\r\n\r\n    struct Reclamation{\r\n        string drugName;\r\n        string drugStoreAddress;\r\n        string imageHash;\r\n    }\r\n\r\n    event reclamationEvent(string drugName, string drugStoreAddress, string ipfsHash);\r\n\r\n    mapping (uint => AMM) listAMM;\r\n    mapping (bytes => AMM) ammByMedicament;\r\n\r\n\r\n    event AMMAdded(AMM amm);\r\n    event AMMDeleted(AMM amm);\r\n    event AMMSuspended(AMM amm);\r\n    event reclamationReceived(Reclamation reclamation);\r\n\r\n    function checkDrugVeracity(string memory dosage, string memory forme, string memory presentation) view public returns(bool) {\r\n        AMM storage amm = ammByMedicament[abi.encodePacked(dosage,forme,presentation)];\r\n        if (amm.status == AMMStatus.Active){\r\n            return true;\r\n        }else{\r\n            return false;\r\n        }\r\n    }\r\n\r\n    function addAMM(Medicament memory medicament,uint idAMM,string memory date) public onlyOwner {\r\n        AMM storage amm = listAMM[idAMM];\r\n        amm.AMM = idAMM;\r\n        amm.dateAMM=date;\r\n        amm.status = AMMStatus.Active;\r\n        amm.medicament = medicament;\r\n        ammByMedicament[abi.encodePacked(medicament.dosage,medicament.forme,medicament.presentation)] = listAMM[idAMM];\r\n        emit AMMAdded(listAMM[idAMM]);\r\n    }\r\n\r\n    function updateAMM(Medicament memory medicament,uint idAMM,string memory date, AMMStatus status) public onlyOwner {\r\n        AMM storage amm = listAMM[idAMM];\r\n        amm.AMM = idAMM;\r\n        amm.dateAMM=date;\r\n        amm.status = status;\r\n        amm.medicament = medicament;\r\n        ammByMedicament[abi.encodePacked(medicament.dosage,medicament.forme,medicament.presentation)] = listAMM[idAMM];\r\n        if (status == AMMStatus.Deleted){\r\n            emit AMMDeleted(listAMM[idAMM]);\r\n        }else if (status == AMMStatus.Suspended){\r\n            emit AMMSuspended(listAMM[idAMM]);\r\n        }\r\n    }\r\n\r\nfunction displayDrugDetails(string memory dosage, string memory forme, string memory presentation) view public returns(Medicament memory) {\r\nAMM storage amm = ammByMedicament[abi.encodePacked(dosage,forme,presentation)];\r\nreturn amm.medicament;\r\n}\r\n\r\n\r\nfunction sendReclamation(string memory dn, string memory dsa, string memory ih) public {\r\nReclamation memory reclamation = Reclamation(dn, dsa, ih);\r\nemit reclamationReceived(reclamation);\r\n}\r\n\r\n\r\n\r\n}\r\n",
  "sourcePath": "C:/Users/lamin/OneDrive/Desktop/PFA/contracts/LocalAuthority.sol",
  "compiler": {
    "name": "solc",
    "version": "0.6.0+commit.26b70077.Emscripten.clang"
  },
  "schemaVersion": "3.4.1",
  "updatedAt": "2021-06-16T12:52:38.261Z",
  "networkType": "ethereum",
  "devdoc": {
    "methods": {}
  },
  "userdoc": {
    "methods": {}
  }
}