{
  "contractName": "OMS",
  "abi": [
    {
      "anonymous": false,
      "inputs": [
        {
          "indexed": false,
          "internalType": "string",
          "name": "countryCode",
          "type": "string"
        }
      ],
      "name": "localAuthorityAdded",
      "type": "event"
    },
    {
      "anonymous": false,
      "inputs": [
        {
          "components": [
            {
              "internalType": "string",
              "name": "dci",
              "type": "string"
            },
            {
              "internalType": "string",
              "name": "specialite",
              "type": "string"
            },
            {
              "internalType": "string",
              "name": "dosage",
              "type": "string"
            },
            {
              "internalType": "string",
              "name": "forme",
              "type": "string"
            },
            {
              "internalType": "string",
              "name": "presentation",
              "type": "string"
            },
            {
              "internalType": "string",
              "name": "conditionnement",
              "type": "string"
            },
            {
              "internalType": "string",
              "name": "classement_VEIC",
              "type": "string"
            },
            {
              "internalType": "string",
              "name": "classe_therapeutic",
              "type": "string"
            },
            {
              "internalType": "string",
              "name": "sous_classe",
              "type": "string"
            },
            {
              "internalType": "string",
              "name": "laboratoire",
              "type": "string"
            },
            {
              "internalType": "string",
              "name": "tableau",
              "type": "string"
            },
            {
              "internalType": "string",
              "name": "duree_conservation",
              "type": "string"
            },
            {
              "internalType": "string",
              "name": "indication",
              "type": "string"
            },
            {
              "internalType": "string",
              "name": "generique_princeps",
              "type": "string"
            },
            {
              "internalType": "uint256",
              "name": "amm",
              "type": "uint256"
            },
            {
              "internalType": "string",
              "name": "status",
              "type": "string"
            }
          ],
          "indexed": false,
          "internalType": "struct Medicament",
          "name": "medicament",
          "type": "tuple"
        }
      ],
      "name": "prohibitedDrugAdded",
      "type": "event"
    },
    {
      "inputs": [],
      "name": "owner",
      "outputs": [
        {
          "internalType": "address",
          "name": "",
          "type": "address"
        }
      ],
      "stateMutability": "view",
      "type": "function",
      "constant": true
    },
    {
      "inputs": [
        {
          "internalType": "address",
          "name": "newOwner",
          "type": "address"
        }
      ],
      "name": "transferOwnership",
      "outputs": [],
      "stateMutability": "nonpayable",
      "type": "function"
    },
    {
      "inputs": [
        {
          "internalType": "string",
          "name": "dci",
          "type": "string"
        }
      ],
      "name": "checkProhibitedDrug",
      "outputs": [
        {
          "internalType": "bool",
          "name": "",
          "type": "bool"
        }
      ],
      "stateMutability": "view",
      "type": "function",
      "constant": true
    },
    {
      "inputs": [
        {
          "components": [
            {
              "internalType": "string",
              "name": "dci",
              "type": "string"
            },
            {
              "internalType": "string",
              "name": "specialite",
              "type": "string"
            },
            {
              "internalType": "string",
              "name": "dosage",
              "type": "string"
            },
            {
              "internalType": "string",
              "name": "forme",
              "type": "string"
            },
            {
              "internalType": "string",
              "name": "presentation",
              "type": "string"
            },
            {
              "internalType": "string",
              "name": "conditionnement",
              "type": "string"
            },
            {
              "internalType": "string",
              "name": "classement_VEIC",
              "type": "string"
            },
            {
              "internalType": "string",
              "name": "classe_therapeutic",
              "type": "string"
            },
            {
              "internalType": "string",
              "name": "sous_classe",
              "type": "string"
            },
            {
              "internalType": "string",
              "name": "laboratoire",
              "type": "string"
            },
            {
              "internalType": "string",
              "name": "tableau",
              "type": "string"
            },
            {
              "internalType": "string",
              "name": "duree_conservation",
              "type": "string"
            },
            {
              "internalType": "string",
              "name": "indication",
              "type": "string"
            },
            {
              "internalType": "string",
              "name": "generique_princeps",
              "type": "string"
            },
            {
              "internalType": "uint256",
              "name": "amm",
              "type": "uint256"
            },
            {
              "internalType": "string",
              "name": "status",
              "type": "string"
            }
          ],
          "internalType": "struct Medicament",
          "name": "medicament",
          "type": "tuple"
        }
      ],
      "name": "addOrUpdateProhibitedDrug",
      "outputs": [],
      "stateMutability": "nonpayable",
      "type": "function"
    },
    {
      "inputs": [
        {
          "internalType": "string",
          "name": "countryCode",
          "type": "string"
        },
        {
          "internalType": "address",
          "name": "localAuthority",
          "type": "address"
        }
      ],
      "name": "addOrUpdateLocalAuthority",
      "outputs": [
        {
          "internalType": "address",
          "name": "",
          "type": "address"
        }
      ],
      "stateMutability": "nonpayable",
      "type": "function"
    }
  ],
  "bytecode": "0x6080604052336000806101000a81548173ffffffffffffffffffffffffffffffffffffffff021916908373ffffffffffffffffffffffffffffffffffffffff1602179055506111a1806100536000396000f3fe608060405234801561001057600080fd5b50600436106100575760003560e01c806372c6db9a1461005c5780638d5a27ce1461008c5780638da5cb5b146100a8578063e53bd3b7146100c6578063f2fde38b146100f6575b600080fd5b61007660048036036100719190810190610ab8565b610112565b6040516100839190610f66565b60405180910390f35b6100a660048036036100a19190810190610b4d565b610199565b005b6100b0610414565b6040516100bd9190610f4b565b60405180910390f35b6100e060048036036100db9190810190610af9565b610439565b6040516100ed9190610f4b565b60405180910390f35b610110600480360361010b9190810190610a8f565b61056c565b005b600060405160200161012390610f36565b604051602081830303815290604052805190602001206002836040516101499190610f08565b908152602001604051809103902060000160405160200161016a9190610f1f565b60405160208183030381529060405280519060200120141561018f5760009050610194565b600190505b919050565b6000809054906101000a900473ffffffffffffffffffffffffffffffffffffffff1673ffffffffffffffffffffffffffffffffffffffff163373ffffffffffffffffffffffffffffffffffffffff1614156104115780600282600001516040516102039190610ef1565b9081526020016040518091039020600082015181600001908051906020019061022d92919061063a565b50602082015181600101908051906020019061024a92919061063a565b50604082015181600201908051906020019061026792919061063a565b50606082015181600301908051906020019061028492919061063a565b5060808201518160040190805190602001906102a192919061063a565b5060a08201518160050190805190602001906102be92919061063a565b5060c08201518160060190805190602001906102db92919061063a565b5060e08201518160070190805190602001906102f892919061063a565b5061010082015181600801908051906020019061031692919061063a565b5061012082015181600901908051906020019061033492919061063a565b5061014082015181600a01908051906020019061035292919061063a565b5061016082015181600b01908051906020019061037092919061063a565b5061018082015181600c01908051906020019061038e92919061063a565b506101a082015181600d0190805190602001906103ac92919061063a565b506101c082015181600e01556101e082015181600f0190805190602001906103d592919061063a565b509050507f6c209f1ec0194be159e59ef6f2c16e201a4bf60d39fbf253bb7fb19f38accf4a816040516104089190610fa3565b60405180910390a15b50565b6000809054906101000a900473ffffffffffffffffffffffffffffffffffffffff1681565b60008060009054906101000a900473ffffffffffffffffffffffffffffffffffffffff1673ffffffffffffffffffffffffffffffffffffffff163373ffffffffffffffffffffffffffffffffffffffff16141561056657816001846040516104a19190610f08565b908152602001604051809103902060006101000a81548173ffffffffffffffffffffffffffffffffffffffff021916908373ffffffffffffffffffffffffffffffffffffffff1602179055507ff622cdd01c85e2a081d5f90adcf88d6c6c3e187b1c0959b2b68233ba86ee77188360405161051c9190610f81565b60405180910390a16001836040516105349190610f08565b908152602001604051809103902060009054906101000a900473ffffffffffffffffffffffffffffffffffffffff1690505b92915050565b6000809054906101000a900473ffffffffffffffffffffffffffffffffffffffff1673ffffffffffffffffffffffffffffffffffffffff163373ffffffffffffffffffffffffffffffffffffffff16141561063757600073ffffffffffffffffffffffffffffffffffffffff168173ffffffffffffffffffffffffffffffffffffffff161461063657806000806101000a81548173ffffffffffffffffffffffffffffffffffffffff021916908373ffffffffffffffffffffffffffffffffffffffff1602179055505b5b50565b828054600181600116156101000203166002900490600052602060002090601f016020900481019282601f1061067b57805160ff19168380011785556106a9565b828001600101855582156106a9579182015b828111156106a857825182559160200191906001019061068d565b5b5090506106b691906106ba565b5090565b6106dc91905b808211156106d85760008160009055506001016106c0565b5090565b90565b6000813590506106ee8161113d565b92915050565b600082601f83011261070557600080fd5b813561071861071382610ff2565b610fc5565b9150808252602083016020830185838301111561073457600080fd5b61073f8382846110ea565b50505092915050565b600082601f83011261075957600080fd5b813561076c6107678261101e565b610fc5565b9150808252602083016020830185838301111561078857600080fd5b6107938382846110ea565b50505092915050565b600061020082840312156107af57600080fd5b6107ba610200610fc5565b9050600082013567ffffffffffffffff8111156107d657600080fd5b6107e2848285016106f4565b600083015250602082013567ffffffffffffffff81111561080257600080fd5b61080e848285016106f4565b602083015250604082013567ffffffffffffffff81111561082e57600080fd5b61083a848285016106f4565b604083015250606082013567ffffffffffffffff81111561085a57600080fd5b610866848285016106f4565b606083015250608082013567ffffffffffffffff81111561088657600080fd5b610892848285016106f4565b60808301525060a082013567ffffffffffffffff8111156108b257600080fd5b6108be848285016106f4565b60a08301525060c082013567ffffffffffffffff8111156108de57600080fd5b6108ea848285016106f4565b60c08301525060e082013567ffffffffffffffff81111561090a57600080fd5b610916848285016106f4565b60e08301525061010082013567ffffffffffffffff81111561093757600080fd5b610943848285016106f4565b6101008301525061012082013567ffffffffffffffff81111561096557600080fd5b610971848285016106f4565b6101208301525061014082013567ffffffffffffffff81111561099357600080fd5b61099f848285016106f4565b6101408301525061016082013567ffffffffffffffff8111156109c157600080fd5b6109cd848285016106f4565b6101608301525061018082013567ffffffffffffffff8111156109ef57600080fd5b6109fb848285016106f4565b610180830152506101a082013567ffffffffffffffff811115610a1d57600080fd5b610a29848285016106f4565b6101a0830152506101c0610a3f84828501610a7a565b6101c0830152506101e082013567ffffffffffffffff811115610a6157600080fd5b610a6d848285016106f4565b6101e08301525092915050565b600081359050610a8981611154565b92915050565b600060208284031215610aa157600080fd5b6000610aaf848285016106df565b91505092915050565b600060208284031215610aca57600080fd5b600082013567ffffffffffffffff811115610ae457600080fd5b610af084828501610748565b91505092915050565b60008060408385031215610b0c57600080fd5b600083013567ffffffffffffffff811115610b2657600080fd5b610b3285828601610748565b9250506020610b43858286016106df565b9150509250929050565b600060208284031215610b5f57600080fd5b600082013567ffffffffffffffff811115610b7957600080fd5b610b858482850161079c565b91505092915050565b610b97816110a2565b82525050565b610ba6816110b4565b82525050565b6000610bb78261106a565b610bc18185611086565b9350610bd18185602086016110f9565b610bda8161112c565b840191505092915050565b6000610bf08261106a565b610bfa8185611097565b9350610c0a8185602086016110f9565b80840191505092915050565b6000610c218261105f565b610c2b8185611075565b9350610c3b8185602086016110f9565b610c448161112c565b840191505092915050565b6000610c5a8261105f565b610c648185611097565b9350610c748185602086016110f9565b80840191505092915050565b600081546001811660008114610c9d5760018114610cc257610d06565b607f6002830416610cae8187611097565b955060ff1983168652808601935050610d06565b60028204610cd08187611097565b9550610cdb8561104a565b60005b82811015610cfd57815481890152600182019150602081019050610cde565b82880195505050505b505092915050565b6000610d1b600083611097565b9150600082019050919050565b6000610200830160008301518482036000860152610d468282610c16565b91505060208301518482036020860152610d608282610c16565b91505060408301518482036040860152610d7a8282610c16565b91505060608301518482036060860152610d948282610c16565b91505060808301518482036080860152610dae8282610c16565b91505060a083015184820360a0860152610dc88282610c16565b91505060c083015184820360c0860152610de28282610c16565b91505060e083015184820360e0860152610dfc8282610c16565b915050610100830151848203610100860152610e188282610c16565b915050610120830151848203610120860152610e348282610c16565b915050610140830151848203610140860152610e508282610c16565b915050610160830151848203610160860152610e6c8282610c16565b915050610180830151848203610180860152610e888282610c16565b9150506101a08301518482036101a0860152610ea48282610c16565b9150506101c0830151610ebb6101c0860182610ee2565b506101e08301518482036101e0860152610ed58282610c16565b9150508091505092915050565b610eeb816110e0565b82525050565b6000610efd8284610c4f565b915081905092915050565b6000610f148284610be5565b915081905092915050565b6000610f2b8284610c80565b915081905092915050565b6000610f4182610d0e565b9150819050919050565b6000602082019050610f606000830184610b8e565b92915050565b6000602082019050610f7b6000830184610b9d565b92915050565b60006020820190508181036000830152610f9b8184610bac565b905092915050565b60006020820190508181036000830152610fbd8184610d28565b905092915050565b6000604051905081810181811067ffffffffffffffff82111715610fe857600080fd5b8060405250919050565b600067ffffffffffffffff82111561100957600080fd5b601f19601f8301169050602081019050919050565b600067ffffffffffffffff82111561103557600080fd5b601f19601f8301169050602081019050919050565b60008190508160005260206000209050919050565b600081519050919050565b600081519050919050565b600082825260208201905092915050565b600082825260208201905092915050565b600081905092915050565b60006110ad826110c0565b9050919050565b60008115159050919050565b600073ffffffffffffffffffffffffffffffffffffffff82169050919050565b6000819050919050565b82818337600083830152505050565b60005b838110156111175780820151818401526020810190506110fc565b83811115611126576000848401525b50505050565b6000601f19601f8301169050919050565b611146816110a2565b811461115157600080fd5b50565b61115d816110e0565b811461116857600080fd5b5056fea2646970667358221220926bf4cfe586ef2e2f4a2e3e9bf988dbf48afb0356fe4989e69bf135bced0f2564736f6c63430006000033",
  "source": "pragma solidity >=0.4.22 <0.9.0;\r\npragma experimental ABIEncoderV2;\r\n\r\nimport './Ownable.sol';\r\n\r\n    struct Medicament{\r\n        string dci;\r\n        string specialite;\r\n        string dosage;\r\n        string forme;\r\n        string presentation;\r\n        string conditionnement;\r\n        string classement_VEIC; //change to enum\r\n        string classe_therapeutic;\r\n        string sous_classe;\r\n        string laboratoire;\r\n        string tableau;\r\n        string duree_conservation;\r\n        string indication;\r\n        string generique_princeps;\r\n        uint amm;\r\n        string status;\r\n    }\r\n\r\n    struct Laboratoire{\r\n        string nom;\r\n        string countryCode;\r\n    }\r\n\r\ncontract OMS is Ownable {\r\n\r\n    mapping (string => address) countryToAddress;\r\n    mapping (string => Medicament) DCITomedicamentsInterdis;\r\n    mapping (string => Laboratoire) listLabos;\r\n\r\n    event prohibitedDrugAdded(Medicament medicament);\r\n    event localAuthorityAdded(string countryCode);\r\n\r\n\r\n    //returns true if prohibited\r\n    function checkProhibitedDrug(string memory dci) view public returns(bool){\r\n        if (keccak256(abi.encodePacked(DCITomedicamentsInterdis[dci].dci)) == keccak256(abi.encodePacked(\"\"))){\r\n            return false;\r\n        }else{\r\n            return true;\r\n        }\r\n    }\r\n\r\n    function addOrUpdateProhibitedDrug(Medicament memory medicament) public onlyOwner {\r\n        DCITomedicamentsInterdis[medicament.dci] = medicament;\r\n        emit prohibitedDrugAdded(medicament);\r\n    }\r\n\r\n    function addOrUpdateLocalAuthority(string memory countryCode, address localAuthority) public onlyOwner returns (address) {\r\n        countryToAddress[countryCode] = localAuthority;\r\n        emit localAuthorityAdded(countryCode);\r\n        return countryToAddress[countryCode];\r\n    }\r\n\r\n\r\n\r\n\r\n}\r\n",
  "sourcePath": "C:/Users/lamin/OneDrive/Desktop/PFA/contracts/OMS.sol",
  "compiler": {
    "name": "solc",
    "version": "0.6.0+commit.26b70077.Emscripten.clang"
  },
  "schemaVersion": "3.4.1",
  "updatedAt": "2021-06-16T23:02:02.551Z",
  "networkType": "ethereum",
  "devdoc": {
    "methods": {}
  },
  "userdoc": {
    "methods": {}
  }
}