{
  "contractName": "Ownable",
  "abi": [
    {
      "inputs": [],
      "stateMutability": "nonpayable",
      "type": "constructor"
    },
    {
      "inputs": [],
      "name": "owner",
      "outputs": [
        {
          "internalType": "address",
          "name": "",
          "type": "address"
        }
      ],
      "stateMutability": "view",
      "type": "function",
      "constant": true
    },
    {
      "inputs": [
        {
          "internalType": "address",
          "name": "newOwner",
          "type": "address"
        }
      ],
      "name": "transferOwnership",
      "outputs": [],
      "stateMutability": "nonpayable",
      "type": "function"
    }
  ],
  "bytecode": "0x608060405234801561001057600080fd5b50336000806101000a81548173ffffffffffffffffffffffffffffffffffffffff021916908373ffffffffffffffffffffffffffffffffffffffff1602179055506101f2806100606000396000f3fe608060405234801561001057600080fd5b50600436106100365760003560e01c80638da5cb5b1461003b578063f2fde38b14610085575b600080fd5b6100436100c9565b604051808273ffffffffffffffffffffffffffffffffffffffff1673ffffffffffffffffffffffffffffffffffffffff16815260200191505060405180910390f35b6100c76004803603602081101561009b57600080fd5b81019080803573ffffffffffffffffffffffffffffffffffffffff1690602001909291905050506100ee565b005b6000809054906101000a900473ffffffffffffffffffffffffffffffffffffffff1681565b6000809054906101000a900473ffffffffffffffffffffffffffffffffffffffff1673ffffffffffffffffffffffffffffffffffffffff163373ffffffffffffffffffffffffffffffffffffffff1614156101b957600073ffffffffffffffffffffffffffffffffffffffff168173ffffffffffffffffffffffffffffffffffffffff16146101b857806000806101000a81548173ffffffffffffffffffffffffffffffffffffffff021916908373ffffffffffffffffffffffffffffffffffffffff1602179055505b5b5056fea2646970667358221220cf6ed2740c038e48b1d1eff6db62021240dca86b647596b351557331de0663be64736f6c63430006000033",
  "source": "pragma solidity >=0.6.0;\r\n\r\n/*\r\n * Ownable\r\n *\r\n * Base contract with an owner.\r\n * Provides onlyOwner modifier, which prevents function from running if it is called by anyone other than the owner.\r\n */\r\ncontract Ownable {\r\n    address public owner;\r\n\r\n    constructor() public {\r\n        owner = msg.sender;\r\n    }\r\n\r\n\r\n    modifier onlyOwner() {\r\n        if (msg.sender == owner)\r\n            _; //run the function body\r\n    }\r\n\r\n    function transferOwnership(address newOwner) public onlyOwner {\r\n        if (newOwner != address(0)) owner = newOwner;\r\n    }\r\n\r\n\r\n\r\n\r\n}\r\n",
  "sourcePath": "C:/Users/lamin/OneDrive/Desktop/PFA/contracts/Ownable.sol",
  "compiler": {
    "name": "solc",
    "version": "0.6.0+commit.26b70077.Emscripten.clang"
  },
  "schemaVersion": "3.4.1",
  "updatedAt": "2021-06-16T23:02:02.454Z",
  "networkType": "ethereum",
  "devdoc": {
    "methods": {}
  },
  "userdoc": {
    "methods": {}
  }
}